:020000040800F2
:1000000000000120C50200080903000809030008D8
:1000100009030008090300080903000800000000A4
:10002000000000000000000000000000D10F0008E8
:100030000903000800000000011000086910000812
:100040000903000809030008090300080903000860
:100050000903000809030008090300080903000850
:100060000903000809030008090300080903000840
:100070000903000809030008090300080903000830
:100080000903000809030008090300080903000820
:100090000903000809030008090300080903000810
:1000A0000903000809030008090300080903000800
:1000B00009030008090300080903000809030008F0
:1000C00009030008090300080903000809030008E0
:1000D00009030008090300080903000809030008D0
:1000E00009030008090300080903000809030008C0
:1000F00009030008090300080903000809030008B0
:100100000903000809030008B50C000809030008EA
:10011000090300080903000809030008090300088F
:10012000090300080903000809030008090300087F
:10013000090300080903000809030008090300086F
:10014000610C0008090300080903000809030008FE
:10015000090300080903000809030008090300084F
:10016000090300080903000809030008090300083F
:10017000090300080903000809030008090300082F
:0801800009030008090300084F
:10019000844641EA000313F003036DD1403A41D392
:1001A00051F8043B40F8043B51F8043B40F8043B51
:1001B00051F8043B40F8043B51F8043B40F8043B41
:1001C00051F8043B40F8043B51F8043B40F8043B31
:1001D00051F8043B40F8043B51F8043B40F8043B21
:1001E00051F8043B40F8043B51F8043B40F8043B11
:1001F00051F8043B40F8043B51F8043B40F8043B01
:1002000051F8043B40F8043B51F8043B40F8043BF0
:1002100051F8043B40F8043B51F8043B40F8043BE0
:10022000403ABDD2303211D351F8043B40F8043B80
:1002300051F8043B40F8043B51F8043B40F8043BC0
:1002400051F8043B40F8043B103AEDD20C3205D390
:1002500051F8043B40F8043B043AF9D2043208D088
:10026000D2071CBF11F8013B00F8013B01D30B88FA
:1002700003806046704700BF082A13D38B078DD0D8
:1002800010F003038AD0C3F10403D21ADB071CBFAA
:1002900011F8013B00F8013B80D331F8023B20F814
:1002A000023B7BE7043AD9D3013A11F8013B00F84D
:1002B000013BF9D20B7803704B7843708B788370D5
:1002C00060467047002103E00A4B5B5843500431FD
:1002D00009480A4B42189A42F6D3094A02E0002321
:1002E00042F8043B074B9A42F9D300F0DDFE00F0E0
:1002F000B3FC7047801400080000002000000020BC
:100300000000002044050020FEE7000082B0204BE2
:100310000193019B03221A61019B03225A61019BF5
:100320001C4A9A61019B1C4ADA61019B4FF480626E
:100330001A62019B00229A62019B00225A62019B71
:100340000022DA62019B134A1A66019B134A5A661D
:10035000019B10229A66019B00221A67019B0022D2
:10036000DA66019B00225A67019B07330C4A10682A
:100370001860019B0B4A10681860918892799980E7
:100380009A71019B20229A7100BF02B0704700BF92
:100390009C0400201C140008000000200004002021
:1003A000281400082C14000800B589B003900291AD
:1003B000019200230693039BDB680593039B1B6953
:1003C0000493049A059B9A4205D9049A059BD31A73
:1003D000013B079307E0039B9A680499059BCB1A9E
:1003E0001344013B0793039B9A68059BD31A079A12
:1003F000934228BF13460793079A019B934228BF55
:1004000013460793039B5A68059B1344079A029966
:100410001846FFF7BDFE069A079B13440693029AFF
:10042000079B13440293019A079BD31A0193059AE1
:10043000079B13440593039B9B68059A9A4201D13D
:1004400000230593039B059ADA60019B002BB5D12D
:10045000069B184609B05DF804FB00B589B003900F
:1004600002910192039BDB680793039B9A68079BA9
:10047000D31A0693069A019B9A420ED9039B5A6897
:10048000079B1344019A02991846FFF781FE079AC9
:10049000019B1A44039BDA601AE0069B0593039BB9
:1004A0005A68079B1344059A02991846FFF770FE95
:1004B000019A069BD31A0593039B5868029A069BE0
:1004C0001344059A1946FFF763FE039B059ADA6009
:1004D00000BF09B05DF804FB86B00190019B1B6969
:1004E0000493019BDB680393049A039B9A4208D808
:1004F000019B9A68039BD21A049B1344013B05930A
:1005000004E0049A039BD31A013B0593059B18460C
:1005100006B0704700B589B0039002910192029B2A
:100520000693039B5A1C13465B001344DB001F4ACF
:1005300013440593059B5B69012B17D0012B02D354
:10054000022B23D029E00598FFF7C6FF0490049AF8
:10055000019B9A4202D20023079321E0019B07935B
:10056000019A06990598FFF778FF19E00598FFF7BB
:10057000B3FF0490019A049B934228BF134607934C
:10058000079A06990598FFF768FF09E0019A06990E
:100590000598FFF709FF079002E00023079300BFCB
:1005A000079B184609B05DF804FB00BF9C040020BF
:1005B00000B587B00390029101920D4B1B78002B80
:1005C00001D1FFF7A3FEEFF311834FF0200181F378
:1005D00011880593019A02990398FFF79BFF0490F5
:1005E000059B83F31188049B184607B05DF804FB54
:1005F0009C04002000B585B001900B468DF80330B7
:10060000019B9B680393039B5A1C019B5B689A4266
:100610000FD8019B1A68039B13449DF803201A709E
:10062000039B5A1C019B9A60019BDB685A1C019B2F
:10063000DA60019B9A68019B5B689A4215D1019B25
:100640001869019B1968019B9B681A46FFF7B0FF68
:100650000246019B9B689A4204D0019B4FF0FF32F7
:10066000DA6002E0019B00229A6000BF05B05DF8ED
:1006700004FB000000B58BB003900291019200933F
:10068000029B0893012309930123079307E0089A2B
:10069000019BB2FBF3F30893079B01330793089A7E
:1006A000019B9A42F3D2009A079B9A4201D9009B80
:1006B00007930D9B03F00103002B28D10C9B002B0B
:1006C00025D00D9B03F00203002B06D0009B002BCE
:1006D00003D130238DF81B3002E020238DF81B302E
:1006E0000CE00C9B013B0C939DF81B3019460398C2
:1006F000FFF780FF039BDB68002B07DB0C9B002BC5
:1007000005D0079A0C9B9A42EBD300E000BF039BF5
:10071000DB68002B55DB009B012B03D9009B013BC1
:10072000009309E0029A099BB2FBF3F30593059A43
:10073000019B9A4200D205E0099B019A02FB03F358
:100740000993E8E7029A099BB2FBF3F30593059B33
:10075000099A02FB03F3029AD31A02931B4A059BE0
:1007600013441B7819460398FFF744FF039BDB688B
:10077000002B08DB099A019BB2FBF3F30993099B59
:10078000002BDFD100E000BF0D9B03F00103002B25
:1007900017D00C9B002B14D00AE00C9B013B0C9350
:1007A00020210398FFF726FF039BDB68002B07DB64
:1007B0000C9B002B05D0079A0C9B9A42EDD300E0CE
:1007C00000BF00BF0BB05DF804FB00BF7014000851
:1007D00000B589B00590049103920293049B002B0D
:1007E000B8BF5B4206930123079307E0039B069A79
:1007F00092FBF3F30693079B01330793039B069A3F
:100800009A42F3DA029A079B9A4201D9029B079314
:100810000A9B002B0AD0049B002B04DB0B9B03F0EC
:100820000403002B02D00A9B013B0A930B9B03F0AD
:100830000203002B02D0029B002B1CD00B9B03F069
:100840000103002B17D10A9B002B14D00AE00A9B4E
:10085000013B0A9320210598FFF7CCFE059BDB683E
:10086000002B07DB0A9B002B05D0079A0A9B9A42B4
:10087000EDD300E000BF059BDB68002B4ADB049B47
:10088000002B07DA049B5B4204932D210598FFF7A8
:10089000B1FE08E00B9B03F00403002B03D02B21D7
:1008A0000598FFF7A7FE059BDB68002B32DB0B9B4F
:1008B00003F00203002B1FD00B9B03F00103002B5E
:1008C0001AD1029B002B17D10A9B002B14D00AE0EF
:1008D0000A9B013B0A9330210598FFF78BFE059B8D
:1008E000DB68002B07DB0A9B002B05D0079A0A9BCD
:1008F0009A42EDD300E000BF059BDB68002B09DBCB
:1009000004990B9B01930A9B0093029B039A059801
:10091000FFF7B0FE00BF09B05DF804FB00B5A3B05F
:1009200005900491039206AB16934023179300237E
:100930001893059B1A9300231993049B1B788DF839
:100940008730049B013304939DF88730002B00F01F
:1009500059819DF88730252B40F0488100231E9354
:1009600001232093049B1B788DF887309DF88730F6
:10097000233B0D2B3ED801A252F823F0E5090008D5
:10098000F5090008F5090008F5090008F50900084F
:10099000F5090008F5090008F5090008D50900085F
:1009A000F5090008B5090008F5090008F50900086F
:1009B000C50900081E9B43F001031E93049B0133ED
:1009C00004931AE01E9B43F002031E93049B013321
:1009D000049312E01E9B43F004031E93049B013317
:1009E00004930AE01E9B43F008031E93049B01330B
:1009F000049302E00023209300BF209B002BB1D181
:100A000000231D93049B1B788DF887309DF8873059
:100A10002F2B12D99DF88730392B0ED8049B013328
:100A200004931D9A13469B0013445B001A469DF8DD
:100A300087301344303B1D93E4E700231F93049B4E
:100A40001B788DF887309DF887302E2B1DD1049BA5
:100A500001330493049B1B788DF887309DF8873011
:100A60002F2B12D99DF88730392B0ED8049B0133D8
:100A700004931F9A13469B0013445B001A469DF88B
:100A800087301344303B1F93E4E7049B1B788DF8B9
:100A900087309DF887306C2B03D09DF88730682B0A
:100AA00007D1049B01330493049B1B788DF8873096
:100AB000EFE79DF88730642B27D0642B07DC582B99
:100AC00047D0632B0FD0252B00F086808AE0732B54
:100AD00051D0732B02DC702B6CD083E0752B26D0A9
:100AE000782B36D07EE0039B1B68191D039A11609A
:100AF0001B682093209B8DF86F309DF86F2016ABFC
:100B000011461846FFF776FD6CE0039B1B68191D24
:100B1000039A11601B68209316A81E9B01931D9BCE
:100B200000931F9B0A222099FFF752FE5AE0039B75
:100B30001B68191D039A11601B682093209916A841
:100B40001E9B01931D9B00931F9B0A22FFF792FDA2
:100B500048E0039B1B68191D039A11601B682093D2
:100B6000209916A81E9B01931D9B00931F9B10228A
:100B7000FFF780FD36E0039B1B68191D039A116087
:100B80001B681C931C9B1B788DF887301C9B0133C2
:100B90001C939DF88730002B0AD09DF8872016AB58
:100BA00011461846FFF726FD199B002BEADA19E0DB
:100BB00000BF17E0039B1B68191D039A11601B6897
:100BC0002093209916A8002301930823009308235B
:100BD0001022FFF74FFD05E016AB25211846FFF761
:100BE00009FD00BF049B0133049306E09DF88720B4
:100BF00016AB11461846FFF7FDFC199B002BBFF6FC
:100C00009CAE00E000BF199B002B0CDD189B002B55
:100C100005D0189A06AB19460598FFF7C9FC199B31
:100C2000189A13441993199B184623B05DF804FBD6
:100C30000EB400B584B0019006AB029302AB1A4625
:100C400005990198FFF76AFE0390039B184604B0CC
:100C50005DF804EB03B070470023184670470000AE
:100C600000B589B002AB1A460021104800F0C6FA60
:100C7000002307939DF81030002B02D1029B0793AD
:100C800001E0039B07939DF8133019469DF814303B
:100C90009DF81520019200930B46079A0449002005
:100CA000FFF7C6FF00BF09B05DF804FB0068004015
:100CB0003414000808B540210A4800F06FFB0346D1
:100CC000012B0CD14021074800F09AFB054800F0A9
:100CD0005EFB03461A4604490020FFF7A9FF00BF48
:100CE00008BD00BF000C00406014000884B00190F3
:100CF0000091019B5B680393009B039A5A60039BDE
:100D00009A68009B9A60039B9B68009A5A60039BB9
:100D1000009A9A60009B019A1A61019B1B685A1CF9
:100D2000019B1A6000BF04B0704784B00190019B22
:100D30001B690393019B5B68019A92689A60019B0F
:100D40009B68019A52685A60039B5B68019A9A42B9
:100D500003D1019B9A68039B5A60019B00221A6190
:100D6000039B1B685A1E039B1A60039B1B68184653
:100D700004B0704700B587B0002305934D4B1B6846
:100D8000002B40F087804C4B1B68013304934A4A88
:100D9000049B1360049B002B1FD1484B1B681B68EE
:100DA000002B09D04FF0500383F31188BFF36F8FEE
:100DB000BFF34F8F0093FEE7404B1B680393404BFC
:100DC0001B683E4A13603E4A039B13603D4B1B6801
:100DD00001333C4A136000F0DBF83B4B1B68049A7C
:100DE0009A4248D3354B1B681B68002B04D1364B05
:100DF0004FF0FF321A603EE0304B1B68DB68DB6867
:100E00000293029B5B680193049A019B9A4203D26E
:100E10002D4A019B13602EE0029B04331846FFF716
:100E200084FF029B9B6A002B04D0029B1833184658
:100E3000FFF77BFF029BDB6A01229A40234B1B6872
:100E40001343224A1360029BDA6A13469B00134441
:100E50009B001F4A1A44029B043319461046FFF7B1
:100E600045FF029BDA6A1B4B1B68DB6A9A42B9D3C7
:100E700001230593B6E7174B1B68DA6A144913463A
:100E80009B0013449B000B441B68012B07D90123D3
:100E9000059304E0104B1B6801330F4A13600F4B9E
:100EA0001B68002B01D001230593059B184607B052
:100EB0005DF804FB980400208004002078040020E2
:100EC0007C0400209004002094040020840400206E
:100ED0001404002010040020880400208C0400204A
:100EE00086B0264B1B68002B03D0254B01221A60CD
:100EF00040E0234B00221A60224B1B680393039BA4
:100F0000B3FA83F38DF80B309DF80B30C3F11F0358
:100F100005931D49059A13469B0013449B000B44FF
:100F20001B68002B09D14FF0500383F31188BFF3E6
:100F30006F8FBFF34F8F0193FEE7059A13469B0017
:100F400013449B00104A13440493049B5B685A6843
:100F5000049B5A60049B5A68049B08339A4204D14C
:100F6000049B5B685A68049B5A60049B5B68DB685F
:100F7000064A136000BF06B0704700BF9804002007
:100F80008C0400208404002014040020100400209D
:100F900082B00B4B1B681B68002B04D1094B4FF030
:100FA000FF321A6008E0064B1B68DB68DB680193C0
:100FB000019B5B68034A136000BF02B0704700BF2B
:100FC00078040020940400200000000000000000CD
:100FD000074B19680868B0E8F04F80F30988BFF341
:100FE0006F8F4FF0000080F311887047AFF30080DF
:100FF0001004002000BF00BF00000000000000003F
:10100000EFF30980BFF36F8F154B1A681EF0100FB6
:1010100008BF20ED108A20E9F04F10602DE909008B
:101020004FF0500080F31188BFF34F8FBFF36F8FE5
:10103000FFF756FF4FF0000080F3118809BC1968D4
:101040000868B0E8F04F1EF0100F08BFB0EC108A2F
:1010500080F30988BFF36F8F704700BFAFF3008044
:101060001004002000BF00BF00B583B04FF0500354
:1010700083F31188BFF36F8FBFF34F8F0193FFF797
:1010800079FE0346002B03D0064B4FF080521A60C6
:1010900000230093009B83F3118800BF03B05DF829
:1010A00004FB00BF04ED00E008B5164BD3F8883010
:1010B000144A43F47003C2F88830134B1B68124A79
:1010C00043F001031360104B00229A600E4B1B6823
:1010D0000D4A23F0847323F4803313600A4B0B4AC8
:1010E0005A60094B1B68084A23F480231360064B9F
:1010F0000022DA6000F00CF8024B4FF000629A60B8
:1011000000BF08BD00ED00E00038024010300024B0
:1011100082B00023019300230093344B1B68334AB1
:1011200043F480331360314B1B6803F400330093A6
:10113000019B01330193009B002B03D1019BB3F56D
:10114000A04FF0D1294B1B6803F40033002B02D0D1
:101150000123009301E000230093009B012B42D167
:10116000224B1B6C214A43F080531364204B1B68B5
:101170001F4A43F4404313601C4B1C4A9B68936016
:101180001A4B9B68194A43F400439360174B9B68C2
:10119000164A43F4A0539360144B164A5A60134BFB
:1011A0001B68124A43F08073136000BF0F4B1B682B
:1011B00003F00073002BF9D00F4B40F205721A6058
:1011C0000A4B9B68094A23F003039360074B9B6813
:1011D000064A43F00203936000BF044B9B6803F090
:1011E0000C03082BF9D100BF02B070470038024051
:1011F000007000400A694007003C024084B0039040
:101200000B4601928DF80B309DF80B30039A1B337F
:101210001B0113441B68DBB203F00403DAB2019B29
:101220001A72019B1B7A002B0CD19DF80B30039A8C
:101230001B331B0113441B685B0DC3F30A02019BA4
:101240001A600BE09DF80B30039A1B331B0113440B
:101250001B68DB0823F06042019B5A609DF80B304D
:10126000039A1B331B0113441B68DBB203F0020318
:10127000DAB2019B5A729DF80B30039A1B331B01A3
:10128000134404331B68DBB203F00F03DAB2019B93
:101290009A729DF80B30039A1B331B0113440433DD
:1012A0001B681B0ADAB2019BDA749DF80B30039AB3
:1012B0001B01134403F5DC731B68DAB2019BDA727D
:1012C0009DF80B30039A1B01134403F5DC731B6874
:1012D0001B0ADAB2019B1A739DF80B30039A1B01AB
:1012E000134403F5DC731B681B0CDAB2019B5A73C1
:1012F0009DF80B30039A1B01134403F5DC731B6844
:101300001B0EDAB2019B9A739DF80B30039A1B01F6
:10131000134403F5DE731B68DAB2019BDA739DF8A0
:101320000B30039A1B01134403F5DE731B681B0A81
:10133000DAB2019B1A749DF80B30039A1B01134417
:1013400003F5DE731B681B0CDAB2019B5A749DF81F
:101350000B30039A1B01134403F5DE731B681B0E4D
:10136000DAB2019B9A749DF80B30002B06D1039BD7
:10137000DB6843F02002039BDA6005E0039B1B69F6
:1013800043F02002039B1A6100BF04B0704782B093
:101390000190019B5B6B184602B0704784B00190CE
:1013A0000B46ADF8023000238DF80F300023ADF866
:1013B0000C300023ADF80A30019B1B8A9AB2BDF8AD
:1013C00002301340ADF80C30019B9B899AB2BDF8F6
:1013D00002301340ADF80A30BDF80C30002B07D0B6
:1013E000BDF80A30002B03D001238DF80F3002E046
:1013F00000238DF80F309DF80F30184604B0704769
:1014000082B001900B46ADF80230BDF80230DB43EC
:0C1410009AB2019B1A8200BF02B0704724
:10141C005465726D696E616C00000000525454008A
:10142C00534547474552000043414E206D7367209A
:10143C0072656365697665642069643A2025642C5D
:10144C0020646174613A2025642C2025642C2025AD
:10145C00640A0000436170747572653A2025640A51
:10146C0000000000303132333435363738394142E0
:04147C00434445465A
:04000005080002C528
:00000001FF
