:100000000C9462000C948A000C948A000C948A0070
:100010000C948A000C948A000C948A000C948A0038
:100020000C948A000C948A000C948A000C94910021
:100030000C948A000C948A000C948A000C948A0018
:100040000C94DD000C948A000C940B020C94460274
:100050000C948A000C948A000C948A000C948A00F8
:100060000C948A000C948A000000000024002700F1
:100070002A0000000000250028002B0000000000DE
:1000800023002600290004040404040404040202DA
:100090000202020203030303030301020408102007
:1000A0004080010204081020010204081020000012
:1000B0000007000201000003040600000000000029
:1000C00000002B0311241FBECFEFD8E0DEBFCDBF51
:1000D00011E0A0E0B1E0E6E6F7E002C005900D9285
:1000E000A032B107D9F721E0A0E2B1E001C01D9232
:1000F000A33DB207E1F710E0C4ECD0E004C02297C2
:10010000FE010E94AD03C23CD107C9F70E948C00DA
:100110000C94B1030C9400000E94BD000E94C10029
:10012000FFCF1F920F920FB60F9211242F933F9380
:100130004F935F936F937F938F939F93AF93BF93EF
:10014000EF93FF938DE00E94B80161E0892B09F0E5
:1001500060E08DE00E946401FF91EF91BF91AF914B
:100160009F918F917F916F915F914F913F912F91CF
:100170000F900FBE0F901F90189561E08DE00C94CA
:100180002501F89410928000E1E8F0E0108288E008
:100190009DE39093890080938800808188608083AC
:1001A000808181608083808184608083EFE6F0E0DD
:1001B000808182608083789408951F920F920FB699
:1001C0000F9211242F933F938F939F93AF93BF93DD
:1001D0008091240190912501A0912601B0912701E1
:1001E000309128010196A11DB11D232F2D5F2D37C0
:1001F00020F02D570196A11DB11D20932801809359
:10020000240190932501A0932601B09327018091AA
:10021000200190912101A0912201B091230101962A
:10022000A11DB11D8093200190932101A093220173
:10023000B0932301BF91AF919F918F913F912F91E7
:100240000F900FBE0F901F901895CF93DF93482FFC
:1002500050E0CA0186569F4FFC0134914A575F4FC8
:10026000FA018491882369F190E0880F991FFC01BD
:10027000E859FF4FA591B491FC01EE58FF4FC5918D
:10028000D491662351F42FB7F8948C91932F9095C5
:1002900089238C93888189230BC0623061F42FB746
:1002A000F8948C91932F909589238C938881832B3C
:1002B00088832FBF06C09FB7F8948C91832B8C93B3
:1002C0009FBFDF91CF910895482F50E0CA0182551A
:1002D0009F4FFC012491CA0186569F4FFC019491C7
:1002E0004A575F4FFA013491332309F440C0222367
:1002F00051F1233071F0243028F42130A1F0223064
:1003000011F514C02630B1F02730C1F02430D9F4F3
:1003100004C0809180008F7703C0809180008F7D22
:100320008093800010C084B58F7702C084B58F7D24
:1003300084BD09C08091B0008F7703C08091B00068
:100340008F7D8093B000E32FF0E0EE0FFF1FEE589B
:10035000FF4FA591B4912FB7F894662321F48C91A7
:100360009095892302C08C91892B8C932FBF08957F
:10037000682F70E0CB0182559F4FFC012491CB0187
:1003800086569F4FFC0144916A577F4FFB01949121
:10039000992319F420E030E03CC0222351F12330AE
:1003A00071F0243028F42130A1F0223011F514C06E
:1003B0002630B1F02730C1F02430D9F404C0809148
:1003C00080008F7703C0809180008F7D80938000B4
:1003D00010C084B58F7702C084B58F7D84BD09C0FD
:1003E0008091B0008F7703C08091B0008F7D8093A3
:1003F000B000892F90E0880F991F84589F4FFC010F
:10040000A591B4918C9120E030E0842311F021E09B
:1004100030E0C90108951F920F920FB60F92112478
:100420002F933F934F938F939F93EF93FF938091DD
:10043000C00082FD1DC04091C6002091690130912D
:100440006A012F5F3F4F2F73307080916B01909145
:100450006C012817390771F0E0916901F0916A0188
:10046000E75DFE4F408330936A012093690102C02B
:100470008091C600FF91EF919F918F914F913F9195
:100480002F910F900FBE0F901F9018951F920F92F3
:100490000FB60F9211242F933F938F939F93EF9357
:1004A000FF932091AD013091AE018091AF01909109
:1004B000B0012817390731F48091C1008F7D8093F6
:1004C000C10014C0E091AF01F091B001E359FE4FBB
:1004D00020818091AF019091B00101968F7390704F
:1004E0009093B0018093AF012093C600FF91EF91EC
:1004F0009F918F913F912F910F900FBE0F901F9062
:100500001895DC011C96ED91FC911D97E05CFF4F66
:100510002191319180819181281B390B2F7330708B
:10052000C9010895DC011C96ED91FC911D97E05CDA
:10053000FF4F20813181E054F040DF01AE5BBF4FBF
:100540008D919C9111972817390719F42FEF3FEFE0
:1005500007C08D919C91E80FF91F8081282F30E012
:10056000C9010895DC011C96ED91FC911D97E05C9A
:10057000FF4F20813181E054F040DF01AE5BBF4F7F
:100580008D919C9111972817390719F42FEF3FEFA0
:1005900010C08D919C911197E80FF91F20818D91CA
:1005A0009C91119701968F73907011969C938E93E6
:1005B00030E0C9010895DC0191968C9191978823D0
:1005C00039F05496ED91FC915597808186FFF9CFD3
:1005D00091961C920895CF93DF93EC01EE85FF85F1
:1005E000E05CFF4F20813181E054F0402F5F3F4FAE
:1005F0002F733070DF01AE5BBF4F8D919C911197CF
:1006000028173907D1F3E05CFF4F80819181E054D6
:10061000F040E80FF91F6083EE85FF85E05CFF4F37
:1006200031832083EE89FF89208181E090E00F8C67
:1006300002C0880F991F0A94E2F7282B208381E0DB
:1006400089A3EC89FD8980818064808381E090E0CA
:10065000DF91CF9108951092B4011092B30188EE0A
:1006600093E0A0E0B0E08093B5019093B601A09331
:10067000B701B093B80183E191E09093B201809308
:10068000B10189E291E09093BE018093BD018DE6B6
:1006900091E09093C0018093BF0185EC90E090932E
:1006A000C2018093C10184EC90E09093C4018093D7
:1006B000C30180EC90E09093C6018093C50181EC6A
:1006C00090E09093C8018093C70182EC90E09093F2
:1006D000CA018093C90186EC90E09093CC0180938D
:1006E000CB0184E08093CD0183E08093CE0187E04D
:1006F0008093CF0185E08093D00181E08093D10188
:100700000895CF92DF92EF92FF920F931F93CF93B2
:10071000DF937C016B018A01C0E0D0E00FC0D601FD
:100720006D916D01D701ED91FC910190F081E02D6B
:10073000C7010995C80FD91F0150104001151105B7
:1007400071F7CE01DF91CF911F910F91FF90EF9044
:10075000DF90CF900895EE0FFF1F0590F491E02DEC
:060760000994F894FFCF9C
:100766006E616E00696E66006F7666002E00000090
:10077600000000EB0281038102B2029202DB02005A
:00000001FF
